{
  "contractName": "SaveURL",
  "abi": [
    {
      "inputs": [
        {
          "internalType": "uint256",
          "name": "_premiumPrice",
          "type": "uint256"
        },
        {
          "internalType": "uint256",
          "name": "_masterPrice",
          "type": "uint256"
        },
        {
          "internalType": "uint256",
          "name": "_premiumPlanlimit",
          "type": "uint256"
        },
        {
          "internalType": "uint256",
          "name": "_masterPlanlimit",
          "type": "uint256"
        }
      ],
      "stateMutability": "nonpayable",
      "type": "constructor"
    },
    {
      "anonymous": false,
      "inputs": [
        {
          "indexed": false,
          "internalType": "address",
          "name": "buyer",
          "type": "address"
        }
      ],
      "name": "spaceBought",
      "type": "event"
    },
    {
      "inputs": [],
      "name": "basicPrice",
      "outputs": [
        {
          "internalType": "uint256",
          "name": "",
          "type": "uint256"
        }
      ],
      "stateMutability": "view",
      "type": "function"
    },
    {
      "inputs": [],
      "name": "masterPrice",
      "outputs": [
        {
          "internalType": "uint256",
          "name": "",
          "type": "uint256"
        }
      ],
      "stateMutability": "view",
      "type": "function"
    },
    {
      "inputs": [],
      "name": "premiumPrice",
      "outputs": [
        {
          "internalType": "uint256",
          "name": "",
          "type": "uint256"
        }
      ],
      "stateMutability": "view",
      "type": "function"
    },
    {
      "inputs": [
        {
          "internalType": "address",
          "name": "_buyer",
          "type": "address"
        }
      ],
      "name": "buyPremiumSpace",
      "outputs": [],
      "stateMutability": "payable",
      "type": "function"
    },
    {
      "inputs": [
        {
          "internalType": "address",
          "name": "_buyer",
          "type": "address"
        }
      ],
      "name": "buyMasterSpace",
      "outputs": [],
      "stateMutability": "payable",
      "type": "function"
    },
    {
      "inputs": [
        {
          "internalType": "uint256",
          "name": "newPremiumPrice",
          "type": "uint256"
        },
        {
          "internalType": "uint256",
          "name": "newMasterPrice",
          "type": "uint256"
        }
      ],
      "name": "setPrice",
      "outputs": [
        {
          "internalType": "bool",
          "name": "",
          "type": "bool"
        }
      ],
      "stateMutability": "nonpayable",
      "type": "function"
    },
    {
      "inputs": [
        {
          "internalType": "uint256",
          "name": "newPremiumPlan",
          "type": "uint256"
        },
        {
          "internalType": "uint256",
          "name": "newMasterPlan",
          "type": "uint256"
        }
      ],
      "name": "setSpaceLimit",
      "outputs": [],
      "stateMutability": "nonpayable",
      "type": "function"
    },
    {
      "inputs": [
        {
          "internalType": "address",
          "name": "_newOwner",
          "type": "address"
        }
      ],
      "name": "TransferOwnership",
      "outputs": [
        {
          "internalType": "bool",
          "name": "",
          "type": "bool"
        }
      ],
      "stateMutability": "nonpayable",
      "type": "function"
    },
    {
      "inputs": [
        {
          "internalType": "string",
          "name": "_name",
          "type": "string"
        }
      ],
      "name": "CreateFolder",
      "outputs": [],
      "stateMutability": "nonpayable",
      "type": "function"
    },
    {
      "inputs": [],
      "name": "CreateAccount",
      "outputs": [],
      "stateMutability": "nonpayable",
      "type": "function"
    },
    {
      "inputs": [
        {
          "internalType": "address",
          "name": "_owner",
          "type": "address"
        },
        {
          "internalType": "string",
          "name": "_folderName",
          "type": "string"
        },
        {
          "internalType": "string",
          "name": "_uri",
          "type": "string"
        }
      ],
      "name": "uploadURI",
      "outputs": [],
      "stateMutability": "nonpayable",
      "type": "function"
    },
    {
      "inputs": [
        {
          "internalType": "address",
          "name": "_user",
          "type": "address"
        }
      ],
      "name": "getFolders",
      "outputs": [
        {
          "internalType": "string[]",
          "name": "",
          "type": "string[]"
        }
      ],
      "stateMutability": "view",
      "type": "function"
    },
    {
      "inputs": [
        {
          "internalType": "string",
          "name": "_name",
          "type": "string"
        },
        {
          "internalType": "address",
          "name": "_user",
          "type": "address"
        }
      ],
      "name": "Getfolder",
      "outputs": [
        {
          "components": [
            {
              "internalType": "string[]",
              "name": "uri",
              "type": "string[]"
            },
            {
              "internalType": "uint256",
              "name": "counter",
              "type": "uint256"
            }
          ],
          "internalType": "struct SaveURL.Folder",
          "name": "folder",
          "type": "tuple"
        }
      ],
      "stateMutability": "view",
      "type": "function"
    },
    {
      "inputs": [
        {
          "internalType": "address",
          "name": "_recipient",
          "type": "address"
        },
        {
          "internalType": "string",
          "name": "_uri",
          "type": "string"
        }
      ],
      "name": "shareURI",
      "outputs": [
        {
          "internalType": "bool",
          "name": "",
          "type": "bool"
        }
      ],
      "stateMutability": "nonpayable",
      "type": "function"
    },
    {
      "inputs": [
        {
          "internalType": "address",
          "name": "_owner",
          "type": "address"
        }
      ],
      "name": "returnMyURI",
      "outputs": [
        {
          "internalType": "string[]",
          "name": "",
          "type": "string[]"
        }
      ],
      "stateMutability": "view",
      "type": "function"
    },
    {
      "inputs": [
        {
          "internalType": "address",
          "name": "_owner",
          "type": "address"
        }
      ],
      "name": "mySharedURI",
      "outputs": [
        {
          "components": [
            {
              "internalType": "address[]",
              "name": "_to",
              "type": "address[]"
            },
            {
              "internalType": "string[]",
              "name": "sharedURI",
              "type": "string[]"
            }
          ],
          "internalType": "struct SaveURL.sharerStruct",
          "name": "",
          "type": "tuple"
        }
      ],
      "stateMutability": "view",
      "type": "function"
    },
    {
      "inputs": [
        {
          "internalType": "address",
          "name": "_owner",
          "type": "address"
        }
      ],
      "name": "returnSharedURI",
      "outputs": [
        {
          "internalType": "string[]",
          "name": "",
          "type": "string[]"
        }
      ],
      "stateMutability": "view",
      "type": "function"
    },
    {
      "inputs": [
        {
          "internalType": "address",
          "name": "_owner",
          "type": "address"
        },
        {
          "internalType": "string",
          "name": "_name",
          "type": "string"
        },
        {
          "internalType": "string",
          "name": "_uri",
          "type": "string"
        }
      ],
      "name": "deleteURI",
      "outputs": [
        {
          "internalType": "bool",
          "name": "",
          "type": "bool"
        }
      ],
      "stateMutability": "nonpayable",
      "type": "function"
    }
  ],
  "bytecode": "0x60806040523480156200001157600080fd5b506040516200407c3803806200407c8339818101604052810190620000379190620000dd565b83600281905550826003819055508160048190555080600581905550336000806101000a81548173ffffffffffffffffffffffffffffffffffffffff021916908373ffffffffffffffffffffffffffffffffffffffff160217905550505050506200014f565b600080fd5b6000819050919050565b620000b781620000a2565b8114620000c357600080fd5b50565b600081519050620000d781620000ac565b92915050565b60008060008060808587031215620000fa57620000f96200009d565b5b60006200010a87828801620000c6565b94505060206200011d87828801620000c6565b93505060406200013087828801620000c6565b92505060606200014387828801620000c6565b91505092959194509250565b613f1d806200015f6000396000f3fe6080604052600436106101095760003560e01c8063b85e631911610095578063d1235a8511610064578063d1235a8514610387578063d85664f7146103b0578063db9191dd146103ed578063e9eec84014610418578063f7d975771461044157610109565b8063b85e631914610293578063bfe2a761146102d0578063cad08b881461030d578063cfaaa2661461034a57610109565b80636cbe6b64116100dc5780636cbe6b64146101b85780637315a5e2146101e1578063a1cc6998146101fd578063ad03f41c14610219578063b1bc8eb41461025657610109565b80630727fe331461010e57806330654e131461012557806348cc1ede146101505780635197204a1461018d575b600080fd5b34801561011a57600080fd5b5061012361047e565b005b34801561013157600080fd5b5061013a6105b0565b6040516101479190612d9c565b60405180910390f35b34801561015c57600080fd5b5061017760048036038101906101729190612e29565b6105b6565b6040516101849190612fa8565b60405180910390f35b34801561019957600080fd5b506101a26107d1565b6040516101af9190612d9c565b60405180910390f35b3480156101c457600080fd5b506101df60048036038101906101da91906130ff565b6107d7565b005b6101fb60048036038101906101f69190612e29565b610a16565b005b61021760048036038101906102129190612e29565b610bb9565b005b34801561022557600080fd5b50610240600480360381019061023b9190612e29565b610d93565b60405161024d9190612fa8565b60405180910390f35b34801561026257600080fd5b5061027d60048036038101906102789190613148565b610fae565b60405161028a91906131bf565b60405180910390f35b34801561029f57600080fd5b506102ba60048036038101906102b59190612e29565b611375565b6040516102c79190612fa8565b60405180910390f35b3480156102dc57600080fd5b506102f760048036038101906102f29190612e29565b611590565b6040516103049190613362565b60405180910390f35b34801561031957600080fd5b50610334600480360381019061032f9190613384565b611853565b604051610341919061342c565b60405180910390f35b34801561035657600080fd5b50610371600480360381019061036c9190612e29565b611aaf565b60405161037e91906131bf565b60405180910390f35b34801561039357600080fd5b506103ae60048036038101906103a9919061344e565b611b89565b005b3480156103bc57600080fd5b506103d760048036038101906103d2919061344e565b611f1d565b6040516103e491906131bf565b60405180910390f35b3480156103f957600080fd5b50610402611f3f565b60405161040f9190612d9c565b60405180910390f35b34801561042457600080fd5b5061043f600480360381019061043a9190613505565b611f45565b005b34801561044d57600080fd5b5061046860048036038101906104639190613505565b611f57565b60405161047591906131bf565b60405180910390f35b60001515600960003373ffffffffffffffffffffffffffffffffffffffff1673ffffffffffffffffffffffffffffffffffffffff16815260200190815260200160002060009054906101000a900460ff16151514610511576040517f08c379a0000000000000000000000000000000000000000000000000000000008152600401610508906135a2565b60405180910390fd5b6001600960003373ffffffffffffffffffffffffffffffffffffffff1673ffffffffffffffffffffffffffffffffffffffff16815260200190815260200160002060006101000a81548160ff0219169083151502179055506032600b60003373ffffffffffffffffffffffffffffffffffffffff1673ffffffffffffffffffffffffffffffffffffffff16815260200190815260200160002081905550565b60025481565b60608160011515600960008373ffffffffffffffffffffffffffffffffffffffff1673ffffffffffffffffffffffffffffffffffffffff16815260200190815260200160002060009054906101000a900460ff1615151461064c576040517f08c379a00000000000000000000000000000000000000000000000000000000081526004016106439061360e565b60405180910390fd5b8073ffffffffffffffffffffffffffffffffffffffff163373ffffffffffffffffffffffffffffffffffffffff16146106ba576040517f08c379a00000000000000000000000000000000000000000000000000000000081526004016106b19061367a565b60405180910390fd5b600c60008473ffffffffffffffffffffffffffffffffffffffff1673ffffffffffffffffffffffffffffffffffffffff168152602001908152602001600020805480602002602001604051908101604052809291908181526020016000905b828210156107c5578382906000526020600020018054610738906136c9565b80601f0160208091040260200160405190810160405280929190818152602001828054610764906136c9565b80156107b15780601f10610786576101008083540402835291602001916107b1565b820191906000526020600020905b81548152906001019060200180831161079457829003601f168201915b505050505081526020019060010190610719565b50505050915050919050565b60035481565b60011515600960003373ffffffffffffffffffffffffffffffffffffffff1673ffffffffffffffffffffffffffffffffffffffff16815260200190815260200160002060009054906101000a900460ff1615151461086a576040517f08c379a00000000000000000000000000000000000000000000000000000000081526004016108619061360e565b60405180910390fd5b61087381612000565b6108b2576040517f08c379a00000000000000000000000000000000000000000000000000000000081526004016108a990613746565b60405180910390fd5b604051806020016040528060405180602001604052806000815250815250600660003373ffffffffffffffffffffffffffffffffffffffff1673ffffffffffffffffffffffffffffffffffffffff1681526020019081526020016000208260405161091d91906137a2565b908152602001604051809103902060000190600161093c929190612c1c565b506000600660003373ffffffffffffffffffffffffffffffffffffffff1673ffffffffffffffffffffffffffffffffffffffff1681526020019081526020016000208260405161098c91906137a2565b908152602001604051809103902060010181905550600a60003373ffffffffffffffffffffffffffffffffffffffff1673ffffffffffffffffffffffffffffffffffffffff16815260200190815260200160002081908060018154018082558091505060019003906000526020600020016000909190919091509081610a129190613965565b5050565b8060011515600960008373ffffffffffffffffffffffffffffffffffffffff1673ffffffffffffffffffffffffffffffffffffffff16815260200190815260200160002060009054906101000a900460ff16151514610aaa576040517f08c379a0000000000000000000000000000000000000000000000000000000008152600401610aa19061360e565b60405180910390fd5b8073ffffffffffffffffffffffffffffffffffffffff163373ffffffffffffffffffffffffffffffffffffffff1614610b18576040517f08c379a0000000000000000000000000000000000000000000000000000000008152600401610b0f9061367a565b60405180910390fd5b600354341015610b5d576040517f08c379a0000000000000000000000000000000000000000000000000000000008152600401610b5490613a83565b60405180910390fd5b600554600b60008473ffffffffffffffffffffffffffffffffffffffff1673ffffffffffffffffffffffffffffffffffffffff1681526020019081526020016000206000828254610bae9190613ad2565b925050819055505050565b8060011515600960008373ffffffffffffffffffffffffffffffffffffffff1673ffffffffffffffffffffffffffffffffffffffff16815260200190815260200160002060009054906101000a900460ff16151514610c4d576040517f08c379a0000000000000000000000000000000000000000000000000000000008152600401610c449061360e565b60405180910390fd5b8073ffffffffffffffffffffffffffffffffffffffff163373ffffffffffffffffffffffffffffffffffffffff1614610cbb576040517f08c379a0000000000000000000000000000000000000000000000000000000008152600401610cb29061367a565b60405180910390fd5b600254341015610d00576040517f08c379a0000000000000000000000000000000000000000000000000000000008152600401610cf790613a83565b60405180910390fd5b600454600b60008473ffffffffffffffffffffffffffffffffffffffff1673ffffffffffffffffffffffffffffffffffffffff1681526020019081526020016000206000828254610d519190613ad2565b925050819055507f3819ac76c856cde0c524e505d8909837388f8b054acd703e4280d29543d8e4fe82604051610d879190613b15565b60405180910390a15050565b60608160011515600960008373ffffffffffffffffffffffffffffffffffffffff1673ffffffffffffffffffffffffffffffffffffffff16815260200190815260200160002060009054906101000a900460ff16151514610e29576040517f08c379a0000000000000000000000000000000000000000000000000000000008152600401610e209061360e565b60405180910390fd5b8073ffffffffffffffffffffffffffffffffffffffff163373ffffffffffffffffffffffffffffffffffffffff1614610e97576040517f08c379a0000000000000000000000000000000000000000000000000000000008152600401610e8e9061367a565b60405180910390fd5b600a60008473ffffffffffffffffffffffffffffffffffffffff1673ffffffffffffffffffffffffffffffffffffffff168152602001908152602001600020805480602002602001604051908101604052809291908181526020016000905b82821015610fa2578382906000526020600020018054610f15906136c9565b80601f0160208091040260200160405190810160405280929190818152602001828054610f41906136c9565b8015610f8e5780601f10610f6357610100808354040283529160200191610f8e565b820191906000526020600020905b815481529060010190602001808311610f7157829003601f168201915b505050505081526020019060010190610ef6565b50505050915050919050565b600080600c60003373ffffffffffffffffffffffffffffffffffffffff1673ffffffffffffffffffffffffffffffffffffffff168152602001908152602001600020805480602002602001604051908101604052809291908181526020016000905b828210156110bc57838290600052602060002001805461102f906136c9565b80601f016020809104026020016040519081016040528092919081815260200182805461105b906136c9565b80156110a85780601f1061107d576101008083540402835291602001916110a8565b820191906000526020600020905b81548152906001019060200180831161108b57829003601f168201915b505050505081526020019060010190611010565b50505050905060005b815181116113695760028282815181106110e2576110e1613b30565b5b60200260200101516040516110f79190613ba6565b602060405180830381855afa158015611114573d6000803e3d6000fd5b5050506040513d601f19601f820116820180604052508101906111379190613bf3565b6002856040516111479190613ba6565b602060405180830381855afa158015611164573d6000803e3d6000fd5b5050506040513d601f19601f820116820180604052508101906111879190613bf3565b0361131b57600860008673ffffffffffffffffffffffffffffffffffffffff1673ffffffffffffffffffffffffffffffffffffffff168152602001908152602001600020849080600181540180825580915050600190039060005260206000200160009091909190915090816111fd9190613965565b50600760003373ffffffffffffffffffffffffffffffffffffffff1673ffffffffffffffffffffffffffffffffffffffff168152602001908152602001600020600101849080600181540180825580915050600190039060005260206000200160009091909190915090816112729190613965565b50600760003373ffffffffffffffffffffffffffffffffffffffff1673ffffffffffffffffffffffffffffffffffffffff168152602001908152602001600020600001859080600181540180825580915050600190039060005260206000200160009091909190916101000a81548173ffffffffffffffffffffffffffffffffffffffff021916908373ffffffffffffffffffffffffffffffffffffffff160217905550611356565b6040517f08c379a000000000000000000000000000000000000000000000000000000000815260040161134d90613c6c565b60405180910390fd5b808061136190613c8c565b9150506110c5565b50600191505092915050565b60608160011515600960008373ffffffffffffffffffffffffffffffffffffffff1673ffffffffffffffffffffffffffffffffffffffff16815260200190815260200160002060009054906101000a900460ff1615151461140b576040517f08c379a00000000000000000000000000000000000000000000000000000000081526004016114029061360e565b60405180910390fd5b8073ffffffffffffffffffffffffffffffffffffffff163373ffffffffffffffffffffffffffffffffffffffff1614611479576040517f08c379a00000000000000000000000000000000000000000000000000000000081526004016114709061367a565b60405180910390fd5b600860008473ffffffffffffffffffffffffffffffffffffffff1673ffffffffffffffffffffffffffffffffffffffff168152602001908152602001600020805480602002602001604051908101604052809291908181526020016000905b828210156115845783829060005260206000200180546114f7906136c9565b80601f0160208091040260200160405190810160405280929190818152602001828054611523906136c9565b80156115705780601f1061154557610100808354040283529160200191611570565b820191906000526020600020905b81548152906001019060200180831161155357829003601f168201915b5050505050815260200190600101906114d8565b50505050915050919050565b611598612c75565b8160011515600960008373ffffffffffffffffffffffffffffffffffffffff1673ffffffffffffffffffffffffffffffffffffffff16815260200190815260200160002060009054906101000a900460ff1615151461162c576040517f08c379a00000000000000000000000000000000000000000000000000000000081526004016116239061360e565b60405180910390fd5b8073ffffffffffffffffffffffffffffffffffffffff163373ffffffffffffffffffffffffffffffffffffffff161461169a576040517f08c379a00000000000000000000000000000000000000000000000000000000081526004016116919061367a565b60405180910390fd5b600760008473ffffffffffffffffffffffffffffffffffffffff1673ffffffffffffffffffffffffffffffffffffffff1681526020019081526020016000206040518060400160405290816000820180548060200260200160405190810160405280929190818152602001828054801561176957602002820191906000526020600020905b8160009054906101000a900473ffffffffffffffffffffffffffffffffffffffff1673ffffffffffffffffffffffffffffffffffffffff168152602001906001019080831161171f575b5050505050815260200160018201805480602002602001604051908101604052809291908181526020016000905b828210156118435783829060005260206000200180546117b6906136c9565b80601f01602080910402602001604051908101604052809291908181526020018280546117e2906136c9565b801561182f5780601f106118045761010080835404028352916020019161182f565b820191906000526020600020905b81548152906001019060200180831161181257829003601f168201915b505050505081526020019060010190611797565b5050505081525050915050919050565b61185b612c8f565b8160011515600960008373ffffffffffffffffffffffffffffffffffffffff1673ffffffffffffffffffffffffffffffffffffffff16815260200190815260200160002060009054906101000a900460ff161515146118ef576040517f08c379a00000000000000000000000000000000000000000000000000000000081526004016118e69061360e565b60405180910390fd5b8073ffffffffffffffffffffffffffffffffffffffff163373ffffffffffffffffffffffffffffffffffffffff161461195d576040517f08c379a00000000000000000000000000000000000000000000000000000000081526004016119549061367a565b60405180910390fd5b600660003373ffffffffffffffffffffffffffffffffffffffff1673ffffffffffffffffffffffffffffffffffffffff168152602001908152602001600020846040516119aa91906137a2565b908152602001604051809103902060405180604001604052908160008201805480602002602001604051908101604052809291908181526020016000905b82821015611a94578382906000526020600020018054611a07906136c9565b80601f0160208091040260200160405190810160405280929190818152602001828054611a33906136c9565b8015611a805780601f10611a5557610100808354040283529160200191611a80565b820191906000526020600020905b815481529060010190602001808311611a6357829003601f168201915b5050505050815260200190600101906119e8565b50505050815260200160018201548152505091505092915050565b60008060009054906101000a900473ffffffffffffffffffffffffffffffffffffffff1673ffffffffffffffffffffffffffffffffffffffff163373ffffffffffffffffffffffffffffffffffffffff1614611b40576040517f08c379a0000000000000000000000000000000000000000000000000000000008152600401611b379061367a565b60405180910390fd5b816000806101000a81548173ffffffffffffffffffffffffffffffffffffffff021916908373ffffffffffffffffffffffffffffffffffffffff16021790555060019050919050565b8260011515600960008373ffffffffffffffffffffffffffffffffffffffff1673ffffffffffffffffffffffffffffffffffffffff16815260200190815260200160002060009054906101000a900460ff16151514611c1d576040517f08c379a0000000000000000000000000000000000000000000000000000000008152600401611c149061360e565b60405180910390fd5b8073ffffffffffffffffffffffffffffffffffffffff163373ffffffffffffffffffffffffffffffffffffffff1614611c8b576040517f08c379a0000000000000000000000000000000000000000000000000000000008152600401611c829061367a565b60405180910390fd5b6000611c978585612237565b9050600b60008673ffffffffffffffffffffffffffffffffffffffff1673ffffffffffffffffffffffffffffffffffffffff16815260200190815260200160002054600d60008773ffffffffffffffffffffffffffffffffffffffff1673ffffffffffffffffffffffffffffffffffffffff168152602001908152602001600020541115611d5a576040517f08c379a0000000000000000000000000000000000000000000000000000000008152600401611d5190613d20565b60405180910390fd5b80611d9a576040517f08c379a0000000000000000000000000000000000000000000000000000000008152600401611d9190613d8c565b60405180910390fd5b6000600660008773ffffffffffffffffffffffffffffffffffffffff1673ffffffffffffffffffffffffffffffffffffffff16815260200190815260200160002085604051611de991906137a2565b90815260200160405180910390209050600c60008773ffffffffffffffffffffffffffffffffffffffff1673ffffffffffffffffffffffffffffffffffffffff16815260200190815260200160002084908060018154018082558091505060019003906000526020600020016000909190919091509081611e6a9190613965565b508060000184908060018154018082558091505060019003906000526020600020016000909190919091509081611ea19190613965565b506001816001016000828254611eb79190613ad2565b925050819055506001600d60008873ffffffffffffffffffffffffffffffffffffffff1673ffffffffffffffffffffffffffffffffffffffff1681526020019081526020016000206000828254611f0e9190613ad2565b92505081905550505050505050565b6000611f2a84848461246f565b611f348483612884565b600190509392505050565b60015481565b81600481905550806005819055505050565b60008060009054906101000a900473ffffffffffffffffffffffffffffffffffffffff1673ffffffffffffffffffffffffffffffffffffffff163373ffffffffffffffffffffffffffffffffffffffff1614611fe8576040517f08c379a0000000000000000000000000000000000000000000000000000000008152600401611fdf9061367a565b60405180910390fd5b82600281905550816003819055506001905092915050565b600080600a60003373ffffffffffffffffffffffffffffffffffffffff1673ffffffffffffffffffffffffffffffffffffffff168152602001908152602001600020805480602002602001604051908101604052809291908181526020016000905b8282101561210e578382906000526020600020018054612081906136c9565b80601f01602080910402602001604051908101604052809291908181526020018280546120ad906136c9565b80156120fa5780601f106120cf576101008083540402835291602001916120fa565b820191906000526020600020905b8154815290600101906020018083116120dd57829003601f168201915b505050505081526020019060010190612062565b50505050905060005b8151811161222c57600282828151811061213457612133613b30565b5b60200260200101516040516121499190613ba6565b602060405180830381855afa158015612166573d6000803e3d6000fd5b5050506040513d601f19601f820116820180604052508101906121899190613bf3565b6002856040516121999190613ba6565b602060405180830381855afa1580156121b6573d6000803e3d6000fd5b5050506040513d601f19601f820116820180604052508101906121d99190613bf3565b03612219576040517f08c379a000000000000000000000000000000000000000000000000000000000815260040161221090613df8565b60405180910390fd5b808061222490613c8c565b915050612117565b506001915050919050565b600080600a60008573ffffffffffffffffffffffffffffffffffffffff1673ffffffffffffffffffffffffffffffffffffffff168152602001908152602001600020805480602002602001604051908101604052809291908181526020016000905b828210156123455783829060005260206000200180546122b8906136c9565b80601f01602080910402602001604051908101604052809291908181526020018280546122e4906136c9565b80156123315780601f1061230657610100808354040283529160200191612331565b820191906000526020600020905b81548152906001019060200180831161231457829003601f168201915b505050505081526020019060010190612299565b50505050905060005b8151811161246357600282828151811061236b5761236a613b30565b5b60200260200101516040516123809190613ba6565b602060405180830381855afa15801561239d573d6000803e3d6000fd5b5050506040513d601f19601f820116820180604052508101906123c09190613bf3565b6002856040516123d09190613ba6565b602060405180830381855afa1580156123ed573d6000803e3d6000fd5b5050506040513d601f19601f820116820180604052508101906124109190613bf3565b14612450576040517f08c379a000000000000000000000000000000000000000000000000000000000815260040161244790613e64565b60405180910390fd5b808061245b90613c8c565b91505061234e565b50600191505092915050565b6000600660008573ffffffffffffffffffffffffffffffffffffffff1673ffffffffffffffffffffffffffffffffffffffff168152602001908152602001600020836040516124be91906137a2565b908152602001604051809103902060000180549050905060008167ffffffffffffffff8111156124f1576124f0612fd4565b5b60405190808252806020026020018201604052801561252457816020015b606081526020019060019003908161250f5790505b509050600660008673ffffffffffffffffffffffffffffffffffffffff1673ffffffffffffffffffffffffffffffffffffffff1681526020019081526020016000208460405161257491906137a2565b9081526020016040518091039020600001805480602002602001604051908101604052809291908181526020016000905b828210156126515783829060005260206000200180546125c4906136c9565b80601f01602080910402602001604051908101604052809291908181526020018280546125f0906136c9565b801561263d5780601f106126125761010080835404028352916020019161263d565b820191906000526020600020905b81548152906001019060200180831161262057829003601f168201915b5050505050815260200190600101906125a5565b50505050905060005b8281116127f057600282828151811061267657612675613b30565b5b602002602001015160405161268b9190613ba6565b602060405180830381855afa1580156126a8573d6000803e3d6000fd5b5050506040513d601f19601f820116820180604052508101906126cb9190613bf3565b6002856040516126db9190613ba6565b602060405180830381855afa1580156126f8573d6000803e3d6000fd5b5050506040513d601f19601f8201168201806040525081019061271b9190613bf3565b036127dd578160018461272e9190613e84565b8151811061273f5761273e613b30565b5b602002602001015182828151811061275a57612759613b30565b5b602002602001018190525081600660008873ffffffffffffffffffffffffffffffffffffffff1673ffffffffffffffffffffffffffffffffffffffff168152602001908152602001600020866040516127b391906137a2565b908152602001604051809103902060000190805190602001906127d7929190612ca9565b506127f0565b80806127e890613c8c565b91505061265a565b50600660008673ffffffffffffffffffffffffffffffffffffffff1673ffffffffffffffffffffffffffffffffffffffff1681526020019081526020016000208460405161283e91906137a2565b908152602001604051809103902060000180548061285f5761285e613eb8565b5b60019003818190600052602060002001600061287b9190612d02565b90555050505050565b6000600c60008473ffffffffffffffffffffffffffffffffffffffff1673ffffffffffffffffffffffffffffffffffffffff16815260200190815260200160002080549050905060008167ffffffffffffffff8111156128e7576128e6612fd4565b5b60405190808252806020026020018201604052801561291a57816020015b60608152602001906001900390816129055790505b509050600c60008573ffffffffffffffffffffffffffffffffffffffff1673ffffffffffffffffffffffffffffffffffffffff168152602001908152602001600020805480602002602001604051908101604052809291908181526020016000905b82821015612a2857838290600052602060002001805461299b906136c9565b80601f01602080910402602001604051908101604052809291908181526020018280546129c7906136c9565b8015612a145780601f106129e957610100808354040283529160200191612a14565b820191906000526020600020905b8154815290600101906020018083116129f757829003601f168201915b50505050508152602001906001019061297c565b50505050905060005b828111612ba8576002828281518110612a4d57612a4c613b30565b5b6020026020010151604051612a629190613ba6565b602060405180830381855afa158015612a7f573d6000803e3d6000fd5b5050506040513d601f19601f82011682018060405250810190612aa29190613bf3565b600285604051612ab29190613ba6565b602060405180830381855afa158015612acf573d6000803e3d6000fd5b5050506040513d601f19601f82011682018060405250810190612af29190613bf3565b03612b955781600184612b059190613e84565b81518110612b1657612b15613b30565b5b6020026020010151828281518110612b3157612b30613b30565b5b602002602001018190525081600c60008773ffffffffffffffffffffffffffffffffffffffff1673ffffffffffffffffffffffffffffffffffffffff1681526020019081526020016000209080519060200190612b8f929190612ca9565b50612ba8565b8080612ba090613c8c565b915050612a31565b50600c60008573ffffffffffffffffffffffffffffffffffffffff1673ffffffffffffffffffffffffffffffffffffffff168152602001908152602001600020805480612bf857612bf7613eb8565b5b600190038181906000526020600020016000612c149190612d02565b905550505050565b828054828255906000526020600020908101928215612c64579160200282015b82811115612c63578251829081612c539190613965565b5091602001919060010190612c3c565b5b509050612c719190612d42565b5090565b604051806040016040528060608152602001606081525090565b604051806040016040528060608152602001600081525090565b828054828255906000526020600020908101928215612cf1579160200282015b82811115612cf0578251829081612ce09190613965565b5091602001919060010190612cc9565b5b509050612cfe9190612d42565b5090565b508054612d0e906136c9565b6000825580601f10612d205750612d3f565b601f016020900490600052602060002090810190612d3e9190612d66565b5b50565b5b80821115612d625760008181612d599190612d02565b50600101612d43565b5090565b5b80821115612d7f576000816000905550600101612d67565b5090565b6000819050919050565b612d9681612d83565b82525050565b6000602082019050612db16000830184612d8d565b92915050565b6000604051905090565b600080fd5b600080fd5b600073ffffffffffffffffffffffffffffffffffffffff82169050919050565b6000612df682612dcb565b9050919050565b612e0681612deb565b8114612e1157600080fd5b50565b600081359050612e2381612dfd565b92915050565b600060208284031215612e3f57612e3e612dc1565b5b6000612e4d84828501612e14565b91505092915050565b600081519050919050565b600082825260208201905092915050565b6000819050602082019050919050565b600081519050919050565b600082825260208201905092915050565b60005b83811015612ebc578082015181840152602081019050612ea1565b60008484015250505050565b6000601f19601f8301169050919050565b6000612ee482612e82565b612eee8185612e8d565b9350612efe818560208601612e9e565b612f0781612ec8565b840191505092915050565b6000612f1e8383612ed9565b905092915050565b6000602082019050919050565b6000612f3e82612e56565b612f488185612e61565b935083602082028501612f5a85612e72565b8060005b85811015612f965784840389528151612f778582612f12565b9450612f8283612f26565b925060208a01995050600181019050612f5e565b50829750879550505050505092915050565b60006020820190508181036000830152612fc28184612f33565b905092915050565b600080fd5b600080fd5b7f4e487b7100000000000000000000000000000000000000000000000000000000600052604160045260246000fd5b61300c82612ec8565b810181811067ffffffffffffffff8211171561302b5761302a612fd4565b5b80604052505050565b600061303e612db7565b905061304a8282613003565b919050565b600067ffffffffffffffff82111561306a57613069612fd4565b5b61307382612ec8565b9050602081019050919050565b82818337600083830152505050565b60006130a261309d8461304f565b613034565b9050828152602081018484840111156130be576130bd612fcf565b5b6130c9848285613080565b509392505050565b600082601f8301126130e6576130e5612fca565b5b81356130f684826020860161308f565b91505092915050565b60006020828403121561311557613114612dc1565b5b600082013567ffffffffffffffff81111561313357613132612dc6565b5b61313f848285016130d1565b91505092915050565b6000806040838503121561315f5761315e612dc1565b5b600061316d85828601612e14565b925050602083013567ffffffffffffffff81111561318e5761318d612dc6565b5b61319a858286016130d1565b9150509250929050565b60008115159050919050565b6131b9816131a4565b82525050565b60006020820190506131d460008301846131b0565b92915050565b600081519050919050565b600082825260208201905092915050565b6000819050602082019050919050565b61320f81612deb565b82525050565b60006132218383613206565b60208301905092915050565b6000602082019050919050565b6000613245826131da565b61324f81856131e5565b935061325a836131f6565b8060005b8381101561328b5781516132728882613215565b975061327d8361322d565b92505060018101905061325e565b5085935050505092915050565b600082825260208201905092915050565b60006132b482612e56565b6132be8185613298565b9350836020820285016132d085612e72565b8060005b8581101561330c57848403895281516132ed8582612f12565b94506132f883612f26565b925060208a019950506001810190506132d4565b50829750879550505050505092915050565b6000604083016000830151848203600086015261333b828261323a565b9150506020830151848203602086015261335582826132a9565b9150508091505092915050565b6000602082019050818103600083015261337c818461331e565b905092915050565b6000806040838503121561339b5761339a612dc1565b5b600083013567ffffffffffffffff8111156133b9576133b8612dc6565b5b6133c5858286016130d1565b92505060206133d685828601612e14565b9150509250929050565b6133e981612d83565b82525050565b6000604083016000830151848203600086015261340c82826132a9565b915050602083015161342160208601826133e0565b508091505092915050565b6000602082019050818103600083015261344681846133ef565b905092915050565b60008060006060848603121561346757613466612dc1565b5b600061347586828701612e14565b935050602084013567ffffffffffffffff81111561349657613495612dc6565b5b6134a2868287016130d1565b925050604084013567ffffffffffffffff8111156134c3576134c2612dc6565b5b6134cf868287016130d1565b9150509250925092565b6134e281612d83565b81146134ed57600080fd5b50565b6000813590506134ff816134d9565b92915050565b6000806040838503121561351c5761351b612dc1565b5b600061352a858286016134f0565b925050602061353b858286016134f0565b9150509250929050565b600082825260208201905092915050565b7f616c726561647920637265617465640000000000000000000000000000000000600082015250565b600061358c600f83613545565b915061359782613556565b602082019050919050565b600060208201905081810360008301526135bb8161357f565b9050919050565b7f6e6f6e2d75736572000000000000000000000000000000000000000000000000600082015250565b60006135f8600883613545565b9150613603826135c2565b602082019050919050565b60006020820190508181036000830152613627816135eb565b9050919050565b7f6e6f7420617574686f72697a6564000000000000000000000000000000000000600082015250565b6000613664600e83613545565b915061366f8261362e565b602082019050919050565b6000602082019050818103600083015261369381613657565b9050919050565b7f4e487b7100000000000000000000000000000000000000000000000000000000600052602260045260246000fd5b600060028204905060018216806136e157607f821691505b6020821081036136f4576136f361369a565b5b50919050565b7f6661696c00000000000000000000000000000000000000000000000000000000600082015250565b6000613730600483613545565b915061373b826136fa565b602082019050919050565b6000602082019050818103600083015261375f81613723565b9050919050565b600081905092915050565b600061377c82612e82565b6137868185613766565b9350613796818560208601612e9e565b80840191505092915050565b60006137ae8284613771565b915081905092915050565b60008190508160005260206000209050919050565b60006020601f8301049050919050565b600082821b905092915050565b60006008830261381b7fffffffffffffffffffffffffffffffffffffffffffffffffffffffffffffffff826137de565b61382586836137de565b95508019841693508086168417925050509392505050565b6000819050919050565b600061386261385d61385884612d83565b61383d565b612d83565b9050919050565b6000819050919050565b61387c83613847565b61389061388882613869565b8484546137eb565b825550505050565b600090565b6138a5613898565b6138b0818484613873565b505050565b5b818110156138d4576138c960008261389d565b6001810190506138b6565b5050565b601f821115613919576138ea816137b9565b6138f3846137ce565b81016020851015613902578190505b61391661390e856137ce565b8301826138b5565b50505b505050565b600082821c905092915050565b600061393c6000198460080261391e565b1980831691505092915050565b6000613955838361392b565b9150826002028217905092915050565b61396e82612e82565b67ffffffffffffffff81111561398757613986612fd4565b5b61399182546136c9565b61399c8282856138d8565b600060209050601f8311600181146139cf57600084156139bd578287015190505b6139c78582613949565b865550613a2f565b601f1984166139dd866137b9565b60005b82811015613a05578489015182556001820191506020850194506020810190506139e0565b86831015613a225784890151613a1e601f89168261392b565b8355505b6001600288020188555050505b505050505050565b7f494e5055545f5448455f434f52524543545f5052494345000000000000000000600082015250565b6000613a6d601783613545565b9150613a7882613a37565b602082019050919050565b60006020820190508181036000830152613a9c81613a60565b9050919050565b7f4e487b7100000000000000000000000000000000000000000000000000000000600052601160045260246000fd5b6000613add82612d83565b9150613ae883612d83565b9250828201905080821115613b0057613aff613aa3565b5b92915050565b613b0f81612deb565b82525050565b6000602082019050613b2a6000830184613b06565b92915050565b7f4e487b7100000000000000000000000000000000000000000000000000000000600052603260045260246000fd5b600081519050919050565b600081905092915050565b6000613b8082613b5f565b613b8a8185613b6a565b9350613b9a818560208601612e9e565b80840191505092915050565b6000613bb28284613b75565b915081905092915050565b6000819050919050565b613bd081613bbd565b8114613bdb57600080fd5b50565b600081519050613bed81613bc7565b92915050565b600060208284031215613c0957613c08612dc1565b5b6000613c1784828501613bde565b91505092915050565b7f5552495f444f45535f4e4f545f45584953540000000000000000000000000000600082015250565b6000613c56601283613545565b9150613c6182613c20565b602082019050919050565b60006020820190508181036000830152613c8581613c49565b9050919050565b6000613c9782612d83565b91507fffffffffffffffffffffffffffffffffffffffffffffffffffffffffffffffff8203613cc957613cc8613aa3565b5b600182019050919050565b7f4c494d49545f5245414348454400000000000000000000000000000000000000600082015250565b6000613d0a600d83613545565b9150613d1582613cd4565b602082019050919050565b60006020820190508181036000830152613d3981613cfd565b9050919050565b7f464f4c4445525f4e4f545f435245415445440000000000000000000000000000600082015250565b6000613d76601283613545565b9150613d8182613d40565b602082019050919050565b60006020820190508181036000830152613da581613d69565b9050919050565b7f6578697374000000000000000000000000000000000000000000000000000000600082015250565b6000613de2600583613545565b9150613ded82613dac565b602082019050919050565b60006020820190508181036000830152613e1181613dd5565b9050919050565b7f464f4c4445525f444f45535f4e4f545f45584954000000000000000000000000600082015250565b6000613e4e601483613545565b9150613e5982613e18565b602082019050919050565b60006020820190508181036000830152613e7d81613e41565b9050919050565b6000613e8f82612d83565b9150613e9a83612d83565b9250828203905081811115613eb257613eb1613aa3565b5b92915050565b7f4e487b7100000000000000000000000000000000000000000000000000000000600052603160045260246000fdfea26469706673582212206d27462c2dda8b9720de482a9a06ee9083f3773ee67af2022183afc4885fc4c064736f6c63430008130033",
  "immutableReferences": {},
  "source": "// SPDX-License-Identifier: MIT\n\npragma solidity ^0.8.17;\n\ncontract SaveURL {\n    struct Folder {\n        string[] uri;\n        uint counter;\n\n    }\n\n    struct sharerStruct {\n        address[] _to;\n        string[] sharedURI;\n    }\n    address owner;\n    uint256 public basicPrice;\n    uint256 public premiumPrice;\n    uint256 public masterPrice;\n\n    uint256 constant BASIC_PLAN = 50;\n    uint256 premiumPlanLimit;\n    uint256 masterPlanLimit;\n\n    mapping(address => mapping(string => Folder)) private folderItem;\n    mapping(address => sharerStruct) private shared;\n    //Item shared with a particular address\n    mapping(address =>string[]) itemShared;\n    mapping(address => bool) private accountStatus;\n    mapping(address => string[]) private allFolderNames;\n\n    // total spaces bought\n    mapping(address => uint) private totalPurchsed;\n\n    mapping(address => string[]) myURIs;\n\n    // total spaces used\n    mapping(address => uint) private totalUpload;\n    modifier stat(address userAddr) {\n        require(accountStatus[userAddr] == true, \"non-user\");\n        require(msg.sender == userAddr, \"not authorized\");\n        _;\n    }\n    // EVENT\n    event spaceBought(address buyer);\n\nconstructor(uint _premiumPrice, uint _masterPrice, uint256 _premiumPlanlimit, uint _masterPlanlimit){\n    premiumPrice = _premiumPrice;\n    masterPrice = _masterPrice;\n    premiumPlanLimit = _premiumPlanlimit;\n    masterPlanLimit = _masterPlanlimit;\n    owner = msg.sender;\n\n\n}\n    // Struct to save uri with counter: members(uri, counter)\n    // 2d mapping address string struct\n    // shared uri\n    // mapping of address to array\n    //  keep track of shared photos by sharer: mapping of sharer Address => struct(member: <Array of addresses>, <Array of URI strings>);\n\n    /**\n* @dev Buy space\n* Premium space\n*address of the buyer\n\n */\n    function buyPremiumSpace(address _buyer) public payable stat(_buyer) {\n        require(msg.value >= premiumPrice, \"INPUT_THE_CORRECT_PRICE\");\n        totalPurchsed[_buyer] += premiumPlanLimit;\n        emit spaceBought(_buyer);\n    }\n\n    /**\n* @dev Buy space\n* Premium space\n*address of the buyer\n\n */\n    function buyMasterSpace(address _buyer) public payable stat(_buyer) {\n        require(msg.value >= masterPrice, \"INPUT_THE_CORRECT_PRICE\");\n        totalPurchsed[_buyer] += masterPlanLimit;\n    }\n/**\n    @dev Set Prices\n */\n    function setPrice(uint newPremiumPrice, uint newMasterPrice) external returns(bool){\n        require(msg.sender == owner, 'not authorized');\n        premiumPrice = newPremiumPrice;\n        masterPrice = newMasterPrice;\n        return true;\n    }\n\n    function setSpaceLimit(uint newPremiumPlan, uint newMasterPlan) external {\n        premiumPlanLimit = newPremiumPlan;\n        masterPlanLimit = newMasterPlan;\n    }\n\n    /**\n        @dev Transfer Ownership\n     */\n    function TransferOwnership(address _newOwner) external returns(bool) {\n        require(msg.sender == owner, 'not authorized');\n        owner = _newOwner;\n        return true;\n    }\n\n\n    /**\n     * @dev Function to create folder\n     */\n    function CreateFolder(string memory _name) public {\n        require(accountStatus[msg.sender] == true, \"non-user\");\n        require(checkName(_name), \"fail\");\n        folderItem[msg.sender][_name].uri = [\"\"];\n        folderItem[msg.sender][_name].counter = 0;\n        allFolderNames[msg.sender].push(_name);\n    }\n\n    function checkName(string memory name_) internal view returns (bool) {\n        string[] memory check = allFolderNames[msg.sender];\n        for (uint i = 0; i <= check.length; i++) {\n            require(sha256(bytes(name_)) != sha256(bytes(check[i])), \"exist\");\n        }\n        return true;\n    }\n\n    function CreateAccount() public {\n        require(accountStatus[msg.sender] == false, 'already created');\n        accountStatus[msg.sender] = true;\n        totalPurchsed[msg.sender] = 50;\n    }\n\n    /**\n     * @dev Function to save to Folder\n     */\n    function uploadURI(\n        address _owner,\n        string memory _folderName,\n        string memory _uri\n    ) public stat(_owner) {\n        bool exist = nameExist(_owner, _folderName);\n\n        require(totalUpload[_owner] <= totalPurchsed[_owner], \"LIMIT_REACHED\");\n\n        require(exist, \"FOLDER_NOT_CREATED\");\n\n        Folder storage saveFolder = folderItem[_owner][_folderName];\n        myURIs[_owner].push(_uri);\n        saveFolder.uri.push(_uri);\n        saveFolder.counter += 1;\n        totalUpload[_owner] += 1;\n    }\n\n    function nameExist(\n        address _owner,\n        string memory _name\n    ) internal view returns (bool) {\n        string[] memory check = allFolderNames[_owner];\n        for (uint i = 0; i <= check.length; i++) {\n            require(\n                sha256(bytes(_name)) == sha256(bytes(check[i])),\n                \"FOLDER_DOES_NOT_EXIT\"\n            );\n        }\n        return true;\n    }\n\n    /**\n    * @dev Function to return all folders\n    \n     */\n    function getFolders(\n        address _user\n    ) public view stat(_user) returns (string[] memory) {\n        return allFolderNames[_user];\n    }\n\n    /**\n     * @dev Function to get folder details\n     */\n    function Getfolder(\n        string memory _name,\n        address _user\n    ) public view stat(_user) returns (Folder memory folder) {\n        folder = folderItem[msg.sender][_name];\n    }\n\n    /**\n     * @dev Function to share uri\n     */\n    function shareURI(address _recipient, string memory _uri) external returns(bool){\n       string[] memory uris = myURIs[msg.sender];    \n        for(uint i = 0; i <= uris.length; i++ ){\n            if((sha256(bytes(_uri))) == sha256(bytes(uris[i]))){\n\n        itemShared[_recipient].push(_uri);\n        shared[msg.sender].sharedURI.push(_uri);\n        shared[msg.sender]._to.push(_recipient);\n            }\n            else{\n                revert(\"URI_DOES_NOT_EXIST\");\n            }         \n        }\n        return true;\n    }\n\n    /**\n    *function to return my saved uri\n     */\n     function returnMyURI(address _owner) view external stat(_owner) returns(string[] memory){\n       return myURIs[_owner];\n     }\n\n    /**\n    *@dev return uri i shared\n     */\n     function mySharedURI(address _owner) view external stat(_owner) returns(sharerStruct memory){\n        return shared[_owner];\n     }\n\n    /**\n    *function to return shared uri\n     */\n     function returnSharedURI(address _owner) view external stat(_owner) returns(string[] memory){\n       return itemShared[_owner];\n     }\n\n\n\n    /**\n     * @dev Function to delete uri\n     */\n\n     function deleteURI(address _owner, string memory _name, string memory _uri) external returns(bool){\n       deleteFromFolder(_owner, _name, _uri);\n       deleteFromMain(_owner, _uri);  \n        return true;\n     }\n\n     function deleteFromFolder(address _owner, string memory _name, string memory _uri)internal {\n        uint size = folderItem[_owner][_name].uri.length;\n        string[] memory todelete = new string[](size);\n        todelete = folderItem[_owner][_name].uri;\n        \n        for(uint j=0; j<= size; j++){\n        if(sha256(bytes(_uri)) == sha256(bytes(todelete[j]))){\n            todelete[j] = todelete[size - 1];\n            folderItem[_owner][_name].uri = todelete;\n            break;\n        }\n       }\n         folderItem[_owner][_name].uri.pop();\n     }\n     function deleteFromMain(address _owner, string memory _uri)internal {\n         uint size2 = myURIs[_owner].length; \n        string[] memory deleteuri = new string[](size2);\n        deleteuri = myURIs[_owner];\n        for(uint i =0; i<=size2; i++){\n            if(sha256(bytes(_uri)) == sha256(bytes(deleteuri[i]))){\n                deleteuri[i] = deleteuri[size2 - 1];\n                myURIs[_owner] = deleteuri;\n                break;\n            }\n        }\n        myURIs[_owner].pop();\n     }\n}\n\n  ",
  "sourcePath": "/run/media/adebisivince/New Volume/NAVH/contracts/SaveURL.sol",
  "compiler": {
    "name": "solc",
    "version": "0.8.19+commit.7dd6d404.Emscripten.clang"
  },
  "schemaVersion": "3.4.14",
  "updatedAt": "2023-08-07T10:52:30.228Z",
  "devdoc": {
    "kind": "dev",
    "methods": {
      "CreateFolder(string)": {
        "details": "Function to create folder"
      },
      "Getfolder(string,address)": {
        "details": "Function to get folder details"
      },
      "TransferOwnership(address)": {
        "details": "Transfer Ownership"
      },
      "buyMasterSpace(address)": {
        "details": "Buy space Premium space address of the buyer"
      },
      "buyPremiumSpace(address)": {
        "details": "Buy space Premium space address of the buyer"
      },
      "deleteURI(address,string,string)": {
        "details": "Function to delete uri"
      },
      "getFolders(address)": {
        "details": "Function to return all folders"
      },
      "mySharedURI(address)": {
        "details": "return uri i shared"
      },
      "setPrice(uint256,uint256)": {
        "details": "Set Prices"
      },
      "shareURI(address,string)": {
        "details": "Function to share uri"
      },
      "uploadURI(address,string,string)": {
        "details": "Function to save to Folder"
      }
    },
    "version": 1
  },
  "userdoc": {
    "kind": "user",
    "methods": {
      "returnMyURI(address)": {
        "notice": "function to return my saved uri"
      },
      "returnSharedURI(address)": {
        "notice": "function to return shared uri"
      }
    },
    "version": 1
  }
}